:0605E800013100012F00AB
:10050900751B01E4F508F530D2A1C2A4C2A5C2A6A3
:1005190012000312060A12000E751B01E4F50812F7
:10052900076212062CE4F52F752A64D293C29475DA
:040539001B0180F42E
:03000B000203D617
:0603D600C0E0C0F0C0D041
:1003DC00753800E51B64017045758CFF758AA4E5C2
:1003EC0030C3952A5004D2958002C295E530C3954E
:1003FC002B5004D2908002C290E530C3952C50044F
:10040C00D2B28002C2B2E530C3952D5004D2B7806F
:0E041C0002C2B70530E53075F0C88485F030B7
:07042A00D0D0D0F0D0E03289
:030023000204C70D
:1004C700C0E0C0F0C083C082C0D075D000C000C0FB
:1004D70001C002C003C004C005C006C007C298859A
:1004E7009931AF31120308D007D006D005D004D018
:1004F70003D002D001D000D0D0D082D083D0F0D0AA
:02050700E032E0
:100308008F39E539B4310712066DE4F52F22E53946
:10031800B4320712068C752F0122E539B433030273
:1003280005C4E539B434030206ABE539B435030234
:1003380006CAE539B43604752E3222E539B43704D5
:10034800752E6422E539B43804752EC822E539B40F
:100358003903020708E539B43A030206E9E539B476
:090368002106E4F51B75080122D1
:1001A1007B42E4FD7F09120745AB18E4FD7F0B128A
:1001B1000745AB19E4FD7F0C120745AB1AE4FD7F3F
:1001C1000D120745AB11E4FD7F0F1207457B527DF0
:1001D10001E4FF120745AB157D017F02120745AB14
:1001E100167D017F03120745AB177D017F041207BE
:1001F10045AB0E7D017F061207457B477D017F09D7
:10020100120745AB127D017F0B120745AB137D0130
:100211007F0C120745AB147D017F0D120745AB0D15
:070221007D017F0F0207457C
:0305EE00013A4E81
:0F053D0054F0FB43030CAF031205A27F147E00A2
:0A054C00EF1FAC0670011E4C601A90
:10055600753401E534D3940040EC75330A753202E4
:0A056600D532FDD533F7153480E9D6
:010570002268
:0C077800D28100D28000C28100C2802229
:07059B00AD07120778AF3A2B
:1005A200E4FEEF339281EF25E0FF00D28000C280AB
:1005B2000EBE08EE00D28100D280002081FD00C272
:0105C20080B8
:0105C3002215
:1007270012059BED12053D5303FBAF031205A2ED26
:0E073700540FC412053D5303FBAF030205A28D
:1005710012059BED54F0FB43030D1205435303FB9E
:10058100AF031205A2ED540FC454F0FB43030D1247
:0A05910005435303FBAF030205A26C
:10047F007F331207277F327E0012054C7F3212071F
:10048F00277F327E0012054C7F281207277F327E8E
:10049F000012054C7F0C1207277F327E0012054C8D
:1004AF007F061207277F327E0012054C7F0112074D
:0804BF00277F327E0002054C8C
:060371008B358A36893746
:10037700C3EE648094805003E4FEFFD3EF940FEE46
:100387006480948040047E007F0FC3EC6480948077
:100397005003E4FCFDD3ED9401EC648094804004A9
:1003A7007C007D01ED75F040A424802FFF12072704
:1003B700AB35AA36A93712029A60130537E53770AD
:0E03C70002053614F912029AFF12057180E247
:0103D5002205
:10074500AE07AA0353050153060FED6003430640A8
:0D075500430680AF06120727AF02020571B0
:10062C0075C90175C83075CDFF75CCDC75CBFF7500
:10063C00CADC759850E4F587D2CAD2ACD2AFD2BC22
:01064C00228B
:10076200758951E4F58DF58B758CE0F58AD2AFD29F
:06077200A9D28CD28E22F8
:0F05F100012A32012B32012C32012D32012E3220
:10060A00C295C290C2B2C2B7D291C292D293C294D8
:10061A00C2B3D2B4C297D2B6E4F52AF52CF52BF5BB
:02062A002D227F
:10066D00D28C852E2A852E2B852E2C852E2DD29142
:0F067D00C292D293C294C2B3D2B4C297D2B62261
:1005C400D28CE4F52AF52BF52CF52DC291C292C2FA
:1005D40093C294C2B3C2B4C297C2B6C295C290C207
:0405E400B2C2B722C6
:10068C00D28C752A7D752B7D752C7D752D7DC29137
:0F069C00D292C293D294D2B3C2B4D297C2B62232
:1006AB00D28C752A19752C19752B7D752D7DD291D0
:0F06BB00C292D293C294C2B3D2B4C297D2B62223
:1006CA00D28C752A7D752C7D752B19752D19D291B1
:0F06DA00C292D293C294C2B3D2B4C297D2B62204
:1006E900D28C752A64752C64752B64752D64C2913E
:0F06F900D292D293C294C2B3D2B4D297C2B622D5
:10070800D28C752A64752C64752B64752D64D2910E
:0F071800C292C293D294D2B3C2B4C297D2B622C5
:0F000E0075890175A882758CFF758AA4D28C2222
:09060000011130010E30010D3032
:10002600C28CC28EE509702C0509D283D284AF8DAD
:1000360074087E00A807088005C333CE33CED8F9EE
:10004600120431850B1C850C1D851017850F16852E
:100056000A158062E5096401702C0509D283C28401
:10006600AF8D74087E00A807088005C333CE33CE53
:10007600D8F9120431850B1E850C1F851014850FC7
:1000860013850A128030E5096402702AF509C283D5
:10009600C284AF8D74087E00A807088005C333CEDE
:1000A60033CED8F9120431850B20850C2185101A20
:1000B600850F19850A180523E52370020522649623
:1000C6004522703CAB21AA20AD1FAC1EAF1DAE1C55
:1000D600120228751B01E4F508F522F523B2A17F6B
:1000E60064FE12064DB2A17F647E0012064DB2A1D7
:1000F6007F647E0012064DB2A17F647E0012064D1B
:0E010600758CE0E4F58AF58BF58DD28CD28EE7
:0101140022C8
:0E043100AD8B7C002DF50CEC3EF50BAF0CFEF8
:10043F00AB07AA067C007D641202B3EF2430F50AE5
:10044F007C007D64AF03AE021202B3AA04AB057C3D
:10045F00007D0AAF03AE021202B3EF2430F50FAEE8
:10046F0002AF037C007D0A1202B3ED2430F5102297
:100228008E248F258C268D278A288B29D3E5259522
:1002380027E5249526402CD3E5259529E5249528FE
:100248004012050EB2A47FC87E0012064DB2A4AEBD
:1002580024AF2522B2A67FC87E0012064DB2A6059D
:1002680011802AD3E5279529E52695284012050D02
:10027800B2A57FC87E0012064DB2A5AE26AF2722D2
:100288000511B2A67FC87E0012064DB2A6AE28AFF1
:02029800292219
:05000300C283C284224B
:10064D00E4FDFCC3ED9FEC9E5015E4FBFA0BBB00E3
:0F065D00010AEB64794A70F50DBD00010C80E4D1
:01066C00226B
:03000000020115E5
:0C011500787FE4F6D8FD75813A02015CA9
:10029A00BB010689828A83E0225002E722BBFE0262
:0902AA00E32289828A83E4932295
:1002B300BC000BBE0029EF8DF084FFADF022E4CC2F
:1002C300F875F008EF2FFFEE33FEEC33FCEE9DECF8
:1002D300984005FCEE9DFE0FD5F0E9E4CEFD22ED3E
:1002E300F8F5F0EE8420D21CFEADF075F008EF2F88
:1002F300FFED33FD4007985006D5F0F222C398FD79
:050303000FD5F0EA2215
:10012100020509E493A3F8E493A34003F68001F2E6
:1001310008DFF48029E493A3F85407240CC8C333DF
:10014100C4540F4420C8834004F456800146F6DFAE
:10015100E4800B01020408102040809005E8E47E51
:10016100019360BCA3FF543F30E509541FFEE493A3
:10017100A360010ECF54C025E060A840B8E493A36A
:10018100FAE493A3F8E493A3C8C582C8CAC583CA95
:10019100F0A3C8C582C8CAC583CADFE9DEE780BE4D
:0106090000F0
:00000001FF
